:020000040000FA
:10000000B201F22864008C1E02281A080314ED289D
:1000100064000C1E082899000314ED28A501A40013
:10002000B3172730A300103021200330A300E8309D
:100030002120A30164302120A3010A3021202408BB
:100040002C28A2002508A1002408A000D120200807
:10005000031DB313B31B0800303EA700091109109C
:100060000910831609110910091088018312270845
:10007000B21855283A30A100FC30B6203330A60023
:1000800068201030A1006830B62068206430B520A8
:100090006820383054200C30542001305420063071
:1000A0005420B214270855283214A600321C6328A5
:1000B0000910033C031C682868200730A100D030D9
:1000C000B620031408003214FE3C0319ED2809146D
:1000D000091526088800321009113230B5200314A2
:1000E0000800A300360884008417340980058413AF
:1000F000A3080319ED28F030A50022088038A400D9
:10010000F030A5030319A5000319A3030319ED2873
:1001100089289920030120183408A21F3408A20856
:1001200003190301A40F962880067D289728000054
:100130008028210820040319A00A8030201AA10673
:100140002019A106A018A106210DA00DA10DED28D2
:10015000A301A200FF30A207031CA307031CED2884
:100160000330A100DF30B620AA28A101E83EA0009C
:10017000A109FC30031CBF28A0070318BC28A00756
:100180006400A10FBC282018C528A01CC9280000A5
:10019000C92808000038031DFF300405031DFF3087
:1001A000ED28A501A4011030A600210DA40DA50D78
:1001B0002208A4022308031C230FA5020318E72822
:1001C0002208A40723080318230FA5070310A00D76
:1001D000A10DA60BD5282008ED2883130313831245
:1001E00064000800831619309900243098008312A7
:1001F00090309800831607309F00643083128A0184
:10020000A820FE308A012D2040308A012D200E309A
:100210008A012D200A308A012D2004308A012D20E8
:100220001F308A012D2004308A012D200A308A01D6
:100230002D2011308A012D2000308A012D20FE3022
:100240008A012D2048308A012D2000308A012D207E
:1002500000308A012D2004308A012D201F308A01B0
:100260002D2004308A012D200A308A012D201130E2
:100270008A012D2000308A012D20FE308A012D2098
:1002800050308A012D2000308A012D2000308A0153
:100290002D2000308A012D2000308A012D200E30C3
:1002A0008A012D200A308A012D200E308A012D204E
:1002B00000308A012D20FE308A012D2058308A011D
:1002C0002D2004308A012D2008308A012D2017307E
:1002D0008A012D2008308A012D2004308A012D202A
:1002E00000308A012D2000308A012D2000308A0143
:1002F0002D20D1010530D5002030D400D20164007A
:10030000053052028A110A12031899295208383E00
:1003100084002A3080005208423E84002030800051
:1003200052083D3E84008001D20A8A110A12031D40
:100330007F29FE308A012D2001308A012D200030D6
:100340008A012D2020308A012D2020308A012D2085
:1003500020308A012D2020308A012D2020308A0172
:100360002D2020308A012D2020308A012D202030A0
:100370008A012D2020308A012D2020308A012D2055
:1003800020308A012D2020308A012D2020308A0142
:100390002D2020308A012D2020308A012D20203070
:1003A0008A012D2020308A012D2020308A012D2025
:1003B00003308A012D20FE308A012D20C0308A01B1
:1003C0002D2038088A012D20FE308A012D20C130D1
:1003D0008A012D2039088A012D20FE308A012D2026
:1003E000C2308A012D203A088A012D20FE308A0170
:1003F0002D20C3308A012D203B088A012D20FE309C
:100400008A012D20C4308A012D203C088A012D202C
:10041000FE308A012D20C5308A012D2020308A012E
:100420002D204B308A012D2061308A012D206C3027
:100430008A012D2061308A012D206E308A012D2005
:1004400020308A012D2048308A012D2061308A0118
:100450002D206D308A012D206C308A012D206530D1
:100460008A012D203A308A012D2055088A010E205C
:100470000D308A0108200A308A01082031308A01B3
:1004800008202E308A01082020308A0108204F30B1
:100490008A01082079308A01082075308A010820F5
:1004A0006E308A01082063308A01082075308A0185
:1004B000082020308A01082035308A0108202030A9
:1004C0008A0108206B308A01082061308A010820E7
:1004D00072308A01082061308A0108206B308A015D
:1004E000082074308A01082065308A0108207230A3
:1004F0008A0108206C308A01082069308A010820AE
:1005000020308A0108206B308A01082065308A017A
:1005100008206C308A01082069308A0108206D307B
:100520008A01082065308A01082073308A0108207A
:1005300069308A0108206E308A01082069308A01FA
:10054000082020308A01082067308A01082069309D
:100550008A01082072308A01082073308A0108203D
:1005600069308A0108206E308A0108203A308A01F9
:1005700008200D308A0108200A308A010820D201A3
:100580006400053052028A110A120318D82A8A011F
:100590000220C700C8015208423E8400470880007C
:1005A0002A308A010820D20A8A110A12031DC02AA1
:1005B0000D308A0108200A308A0108204B308A0158
:1005C000082065308A0108206C308A0108206930D3
:1005D0008A0108206D308A01082065308A010820D0
:1005E00020308A01082067308A01082069308A019A
:1005F000082072308A01082069308A0108206C3096
:100600008A01082064308A01082069308A010820A4
:100610000D308A0108200A308A01082032308A0110
:1006200008202E308A01082020308A0108204F300F
:100630008A01082079308A01082075308A01082053
:100640006E308A01082063308A01082075308A01E3
:10065000082020308A01082074308A010820613087
:100660008A01082068308A0108206D308A0108203C
:1006700069308A0108206E308A01082065308A01BD
:10068000082020308A01082062308A010820613069
:100690008A01082073308A0108206C308A01082002
:1006A00061308A01082073308A01082069308A018C
:1006B00008206E308A0108203A308A0108200D3067
:1006C0008A0108200A308A0108208A010220D40009
:1006D00042085402031DFF30FF3AC7003D08003CAA
:1006E000031DFF30FF3AC9004708840049088A010A
:1006F000CA20C900CA00640049084A048A110A12C3
:100700000319942B0130BD004208B8000630B60032
:100710000130B4006430A2000A308A0171207830C0
:10072000A2000A308A01712043085402031DFF30E1
:10073000FF3AC7003E08003C031DFF30FF3AC900E6
:100740004708840049088A01CA20C900CA00640019
:1007500049084A048A110A120319C02B0130BE004D
:100760004308B9000630B6000130B4006430A2007E
:100770000A308A0171207830A2000A308A01712083
:1007800044085402031DFF30FF3AC7003F08003CF5
:10079000031DFF30FF3AC9004708840049088A0159
:1007A000CA20C900CA00640049084A048A110A1212
:1007B0000319EC2B0130BF004408BA000630B60024
:1007C0000130B4006430A2000A308A017120783010
:1007D000A2000A308A01712045085402031DFF302F
:1007E000FF3AC7004008003C031DFF30FF3AC90034
:1007F0004708840049088A01CA20C900CA00640069
:1008000049084A048A110A120319182C0130C00041
:100810004508BB000630B6000130B4006430A200C9
:100820000A308A0171207830A2000A308A017120D2
:1008300046085402031DFF30FF3AC7004108003C40
:10084000031DFF30FF3AC9004708840049088A01A8
:10085000CA20C900CA00640049084A048A110A1261
:100860000319442C0130C1004608BC000630B60014
:100870000130B4006430A2000A308A01712078305F
:10088000A2000A308A01712042085402031DFF3081
:10089000C70043085402031DFF30C9004708840005
:1008A00049088A01CA20C900CA0044085402031D2D
:1008B000FF30CB0049084A0484004B088A01CA2053
:1008C000CB00CC0045085402031DFF30CD004B087F
:1008D0004C0484004D088A01CA20CD00CE00460891
:1008E0005402031DFF30CF004D084E0484004F0812
:1008F0008A01CA20CF00D00064004F0850048A113A
:100900000A120319632DD5030630B6000130B40076
:100910005030A2000A308A0171202830A2000A302B
:100920008A01712064005508043C8A110A12031DD3
:10093000D22CFE308A012D2001308A012D2000307A
:100940008A012D2020308A012D2020308A012D207F
:1009500020308A012D2020308A012D2020308A016C
:100960002D2020308A012D2020308A012D2020309A
:100970008A012D2020308A012D2020308A012D204F
:1009800020308A012D2020308A012D2020308A013C
:100990002D2020308A012D2020308A012D20033087
:1009A0008A012D2064005508033C8A110A12031D98
:1009B000062DFE308A012D2001308A012D200030C5
:1009C0008A012D2020308A012D2020308A012D20FF
:1009D00020308A012D2020308A012D2020308A01EC
:1009E0002D2020308A012D2020308A012D2020301A
:1009F0008A012D2020308A012D2020308A012D20CF
:100A000020308A012D2003308A012D2064005508F2
:100A1000023C8A110A12031D312DFE308A012D205D
:100A200001308A012D2000308A012D2020308A01DA
:100A30002D2020308A012D2020308A012D202030C9
:100A40008A012D2020308A012D2020308A012D207E
:100A500020308A012D2020308A012D2003308A0188
:100A60002D2064005508013C8A110A12031D502DE7
:100A7000FE308A012D2001308A012D2000308A01AC
:100A80002D2020308A012D2020308A012D20203079
:100A90008A012D2020308A012D2003308A012D204B
:100AA00064005508003C8A110A12031D632DFE30B4
:100AB0008A012D2001308A012D2000308A012D204D
:100AC00003308A012D20FE308A012D20C0308A019A
:100AD0002D2038088A012D20FE308A012D20C130BA
:100AE0008A012D2039088A012D20FE308A012D200F
:100AF000C2308A012D203A088A012D20FE308A0159
:100B00002D20C3308A012D203B088A012D20FE3084
:100B10008A012D20C4308A012D203C088A012D2015
:100B2000FE308A012D20C5308A012D2020308A0117
:100B30002D204B308A012D2061308A012D206C3010
:100B40008A012D2061308A012D206E308A012D20EE
:100B500020308A012D2048308A012D2061308A0101
:100B60002D206D308A012D206C308A012D206530BA
:100B70008A012D203A308A012D2055088A010E2045
:100B80003D08013C031DFF30FF3AC7003E08013C11
:100B9000031DFF30FF3AC9004708840049088A0155
:100BA000CA20C900CA003F08013C031DFF30FF3ABC
:100BB000CB0049084A0484004B088A01CA20CB00B4
:100BC000CC004008013C031DFF30FF3ACD004B082C
:100BD0004C0484004D088A01CA20CD00CE00410893
:100BE000013C031DFF30FF3ACF004D084E04840046
:100BF0004F088A01CA20CF00D00064004F0850047B
:100C00008A110A120319072E8A110A127F2E640014
:100C10005508003C8A110A12031D7D2EFE308A0100
:100C20002D2001308A012D2001308A012D20023033
:100C30008A012D2003308A012D20FE308A012D20CB
:100C4000C0308A012D2038088A012D20FE308A010B
:100C50002D20C1308A012D2039088A012D20FE3037
:100C60008A012D20C2308A012D203A088A012D20C8
:100C7000FE308A012D20C3308A012D203B088A01D5
:100C80002D20FE308A012D20C4308A012D203C0801
:100C90008A012D20FE308A012D20C5308A012D20A9
:100CA00020308A012D204B308A012D2061308A01AD
:100CB0002D206C308A012D2061308A012D206E306C
:100CC0008A012D2020308A012D2048308A012D20D4
:100CD00061308A012D206D308A012D206C308A010F
:100CE0002D2065308A012D203A308A012D205508AB
:100CF0008A010E208A110A127F2E8A010E2B533090
:100D00008A01082070308A01082061308A01082099
:100D100063308A01082065308A01082020308A016A
:100D2000082062308A01082061308A01082073306F
:100D30008A01082061308A01082072308A01082067
:100D400061308A0108206B308A01082020308A0136
:100D5000082079308A01082065308A0108206E3029
:100D60008A01082069308A01082020308A01082081
:100D70006F308A01082079308A01082075308A0195
:100D800008206E308A01082061308A010820203056
:100D90008A01082067308A01082065308A0108200E
:100DA00063308A01082065308A01082062308A0198
:100DB000082069308A0108206C308A0108206930D7
:100DC0008A01082072308A01082073308A010820C5
:100DD00069308A0108206E308A01082069308A0152
:100DE00008207A308A0108200D308A0108200A3054
:100DF0008A0108208A010220D30064005308203CA5
:100E00008A110A120319062F8A017F2E8A01792975
:02400E00753FFC
:00000001FF
