:020000040000FA
:10000000B2019D2864008C1E02281A080314982847
:10001000040864000C1E0928990003149828A700FE
:100020000911091009108316091109100910880116
:1000300083122708B21837283A30A100FC307F20FD
:100040003330A6004A201030A10068307F204A20BB
:1000500064307E204A20383036200C303620013083
:10006000362006303620B214270837283214A6006E
:10007000321C45280910033C031C4A284A2007303B
:10008000A100D0307F20031408003214FE3C031975
:1000900098280914091526088800321009113230F1
:1000A0007E2003140800A40029080319982893202F
:1000B000A0002518831724088400200880008313DB
:1000C000A40AA9035428A40029080319982825186C
:1000D000831724088400000883139320A40AA9032B
:1000E0006528A301A200FF30A207031CA307031C7D
:1000F00098280330A100DF307F207328A101E83E5B
:10010000A000A109FC30031C8828A007031885283B
:10011000A0076400A10F852820188E28A01C922813
:10012000000092280800840031088A00300882000C
:100130008313031383126400080083161930990097
:1001400024309800831290309800831607309F0067
:10015000643083128A017120FE308A010F20013041
:100160008A010F208A010220743C8A110A12031DA1
:10017000B2280230A9000230B000B101A501383028
:100180008A0153200230A9000830B000B101A50156
:1001900038308A0163200D308A0109200A308A0133
:0601A00009208A01B228CB
:02400E00753FFC
:00000001FF
