:020000040000FA
:10000000B201B128A400B3172730A3001030142088
:100010000330A300E8301420A30164301420A301AE
:100020000A30142024081F28A2002508A100240853
:10003000A00090202008031DB313B31B0800303E1E
:10004000A7000911091009108316091109100910D8
:10005000880183122708B21848283A30A100FC30E2
:1000600072203330A6005B201030A100683072206F
:100070005B20643071205B20383047200C304720F3
:100080000130472006304720B21427084828321490
:10009000A600321C56280910033C031C5B285B2079
:1000A0000730A100D0307220031408003214FE3C47
:1000B0000319AC2809140915260888003210091103
:1000C0003230712003140800A301A200FF30A20700
:1000D000031CA307031CAC280330A100DF307220EF
:1000E0006628A101E83EA000A109FC30031C7B2882
:1000F000A00703187828A0076400A10F782820180B
:100100008128A01C8528000085280800013EA70042
:100110000A30A200A3019020A70B8B282408080016
:10012000A501A4011030A600210DA40DA50D2208E3
:10013000A4022308031C230FA5020318A6282208E3
:10014000A40723080318230FA5070310A00DA10D72
:10015000A60B94282008AC28831303138312640091
:100160000800831607309F00643083128A016420E0
:10017000BC01640018303C028A110A12031842299B
:10018000BB0164003C303B028A110A1203183D296E
:10019000BA0164003C303A028A110A120318382965
:1001A00064308A016420FE308A01202001308A01F7
:1001B0002020FE308A01202085308A0120203C0842
:1001C000A000A10101308A018620B800B9013908D8
:1001D000A50038088A0102203C08A000A1010030D7
:1001E0008A018620B800B9013908A50038088A01BB
:1001F00002203A308A0120203B08A000A1010130F2
:100200008A018620B800B9013908A50038088A019A
:1002100002203B08A000A10100308A018620B8001E
:10022000B9013908A50038088A0102203A308A014C
:1002300020203A08A000A10101308A018620B800E0
:10024000B9013908A50038088A0102203A08A0003F
:10025000A10100308A018620B800B9013908A50043
:1002600038088A010220BA0A8A110A12031DC92815
:10027000BB0A8A110A12031DC128BC0A8A110A127C
:08028000031DB9288A01B8280A
:02400E00753FFC
:00000001FF
