:020000040000FA
:100000003028A301A200FF30A207031CA307031C92
:100010002B280330A100DF300F200328A101E83E88
:10002000A000A109FC30031C1828A00703181528FC
:10003000A0076400A10F152820181E28A01C222844
:100040000000222808000310A00DA10DFF3E031898
:10005000232820082B28831303138312640008002D
:1000600083168601870183128601B8017E30B900AC
:100070001830BA001830BB007E30BC00BD017A30A9
:10008000BF004030C0004030C1007A30C200C30120
:100090007E30C4004230C5004230C6003C30C7004C
:1000A000C8017E30C9004030CA004030CB007E30ED
:1000B000CC00CD017E30CE001830CF002430D000EF
:1000C0004230D100D201D301D401D501D601D701EC
:1000D000D801D9010130DD00DC01640008305C0288
:1000E0008A110A1203188F285D0986005C08383EC1
:1000F00084000008870008308A01012064005D0840
:10010000803C8A110A12031D88288A110A128F283E
:100110000310DD0DDC0A8A110A12031D6D28DC01B3
:10012000640021305C028A110A120318AB280130E6
:100130005C07DA00DB01DB0D5A08383E840000085A
:10014000DA005C08383E84005A088000DC0A8A1114
:0E0150000A12031D90283808D9008A016A2877
:02400E00753FFC
:00000001FF
