:020000040000FA
:100000002828A301A200FF30A207031CA307031C9A
:1000100023280330A100DF300F200328A101E83E90
:10002000A000A109FC30031C1828A00703181528FC
:10003000A0076400A10F152820181E28A01C222844
:1000400000002228080083130313831264000800B1
:1000500083168601831286010130B8000230B90090
:100060000430BA000830BB001030BC002030BD00A6
:100070004030BE008030BF00C20164000830420240
:1000800003184D284208383E84000008C00040098B
:10009000860064300120C20F3D280730C2004208AC
:1000A000383E84000008C00040098600643001200A
:0A00B0000130C20203184F283C285B
:02400E00653F0C
:00000001FF
