:020000040000FA
:100000002828A301A200FF30A207031CA307031C9A
:1000100023280330A100DF300F200328A101E83E90
:10002000A000A109FC30031C1828A00703181528FC
:10003000A0076400A10F152820181E28A01C222844
:1000400000002228080083130313831264000800B1
:100050008316860103308700831286010330B800BF
:100060000630B9000C30BA000930BB0064008A11B8
:100070000A12071C4E2864003E08043C8A110A122A
:10008000031D4328BE013E08383E84000008860058
:1000900032308A010120BE0A8A01362864008A11A2
:1000A0000A12871C672864003E08FF3C8A110A1266
:1000B000031D5C280430BE003E08383E8400000862
:1000C000860032308A010120BE038A014E288A014F
:0200D0003628D0
:02400E00753FFC
:00000001FF
