:020000040000FA
:10000000B201802864008C1E02281A0803147B2881
:1000100064000C1E0828990003147B28A70009110E
:10002000091009108316091109100910880183129B
:100030002708B21836283A30A100FC30602033304F
:10004000A60049201030A1006830602049206430AB
:100050005F204920383035200C30352001303520E4
:1000600006303520B214270836283214A600321C78
:1000700044280910033C031C492849200730A100EB
:10008000D0306020031408003214FE3C03197B2892
:1000900009140915260888003210091132305F2032
:1000A00003140800A301A200FF30A207031CA3074A
:1000B000031C7B280330A100DF3060205428A101FD
:1000C000E83EA000A109FC30031C6928A007031822
:1000D0006628A0076400A10F662820186F28A01CBE
:1000E00073280000732808000038031DFF30040542
:1000F000031DFF307B288313031383126400080061
:10010000831619309900243098008312903098009B
:10011000831607309F00643083128A015220053015
:10012000D400D101FE308A010E2040308A010E2019
:100130000E308A010E2004308A010E2004308A011C
:100140000E2004308A010E2004308A010E20003077
:100150008A010E2000308A010E20FE308A010E2016
:1001600048308A010E200E308A010E2004308A01A8
:100170000E200C308A010E2014308A010E2004302B
:100180008A010E2000308A010E2000308A010E20E4
:10019000FE308A010E2050308A010E200E308A0176
:1001A0000E2004308A010E200E308A010E201530F8
:1001B0008A010E2004308A010E2000308A010E20B0
:1001C00000308A010E20FE308A010E2058308A014C
:1001D0000E200E308A010E2004308A010E200E30CF
:1001E0008A010E2015308A010E2004308A010E206B
:1001F00008308A010E2010308A010E20FE308A015C
:100200000E2060308A010E200E308A010E2004304C
:100210008A010E200E308A010E2015308A010E2030
:1002200004308A010E200A308A010E2011308A0122
:100230000E200D308A0108200A308A010820313052
:100240008A0108202E308A01082020308A010820E7
:100250004F308A01082079308A01082075308A01E0
:1002600008206E308A01082063308A01082075302A
:100270008A01082020308A01082035308A010820B0
:1002800020308A0108206B308A01082061308A0101
:10029000082072308A01082061308A0108206B3002
:1002A0008A01082074308A01082065308A010820FC
:1002B00072308A0108206C308A01082069308A0176
:1002C000082020308A0108206B308A010820653020
:1002D0008A0108206C308A01082069308A010820D0
:1002E0006D308A01082065308A01082073308A0148
:1002F000082069308A0108206E308A0108206930A0
:100300008A01082020308A01082067308A010820ED
:1003100069308A01082072308A01082073308A010E
:10032000082069308A0108206E308A0108203A309E
:100330008A0108200D308A0108200A308A0108202D
:10034000D2016400053052028A110A120318B92939
:100350008A010220C700C8015208423E84004708B3
:1003600080002A308A010820D20A8A110A12031D4D
:10037000A1290D308A0108200A308A0108204B305B
:100380008A01082065308A0108206C308A01082023
:1003900069308A0108206D308A01082065308A01A1
:1003A000082020308A01082067308A01082069303F
:1003B0008A01082072308A01082069308A010820E9
:1003C0006C308A01082064308A01082069308A0173
:1003D00008200D308A0108200A308A010820FE30EA
:1003E0008A010E2001308A010E2032308A01082055
:1003F0002E308A01082020308A0108204F308A01DF
:10040000082079308A01082075308A0108206E3072
:100410008A01082063308A01082075308A0108208B
:1004200020308A01082074308A01082061308A0156
:10043000082068308A0108206D308A010820693060
:100440008A0108206E308A01082065308A01082060
:1004500020308A01082062308A01082061308A0138
:100460000820FE308A0108206C308A0108206130A3
:100470008A01082073308A010820FD308A01082093
:100480006E308A0108203A308A0108200D308A0136
:1004900008200A308A0108208A010220D30042087D
:1004A0005302031DFF30FF3AC7003D08003C031D07
:1004B000FF30FF3AC9004708840049088A017420C8
:1004C000C900CA00640049084A048A110A120319C3
:1004D0006D2A0130BD004208B80043085302031DD5
:1004E000FF30FF3AC7003E08003C031DFF30FF3AD3
:1004F000C9004708840049088A017420C900CA005D
:10050000640049084A048A110A1203198B2A01302F
:10051000BE004308B90044085302031DFF30FF3AF0
:10052000C7003F08003C031DFF30FF3AC9004708E1
:10053000840049088A017420C900CA00640049087F
:100540004A048A110A120319A92A0130BF0044087B
:10055000BA0045085302031DFF30FF3AC7004008A8
:10056000003C031DFF30FF3AC900470884004908DA
:100570008A017420C900CA00640049084A048A112B
:100580000A120319C72A0130C0004508BB004608FB
:100590005302031DFF30FF3AC7004108003C031D12
:1005A000FF30FF3AC9004708840049088A017420D7
:1005B000C900CA00640049084A048A110A120319D2
:1005C000E52A0130C1004608BC0042085302031D61
:1005D000FF30C70043085302031DFF30C90047081E
:1005E000840049088A017420C900CA0044085302E3
:1005F000031DFF30CB0049084A0484004B088A01E0
:100600007420CB00CC0045085302031DFF30CD0001
:100610004B084C0484004D088A017420CD00CE00A4
:1006200046085302031DFF30CF004D084E048400DE
:100630004F088A017420CF00D00064004F08500496
:100640008A110A120319752BD40364005408043C60
:100650008A110A12031D352BFE308A010E2001304B
:100660008A010E2000308A010E2064005408033CE9
:100670008A110A12031D452BFE308A010E2001301B
:100680008A010E2001308A010E2064005408023CC9
:100690008A110A12031D552BFE308A010E200130EB
:1006A0008A010E2002308A010E2064005408013CA9
:1006B0008A110A12031D652BFE308A010E200130BB
:1006C0008A010E2003308A010E2064005408003C89
:1006D0008A110A12031D752BFE308A010E2001308B
:1006E0008A010E2004308A010E20FE308A010E207D
:1006F000C0308A010E2038088A010E20FE308A019F
:100700000E20C1308A010E2039088A010E20FE30E9
:100710008A010E20C2308A010E203A088A010E207A
:10072000FE308A010E20C3308A010E203B088A0168
:100730000E20FE308A010E20C4308A010E203C08B3
:100740008A010E203D08013C031DFF30FF3AC7001F
:100750003E08013C031DFF30FF3AC90047088400F2
:1007600049088A017420C900CA003F08013C031DE2
:10077000FF30FF3ACB0049084A0484004B088A0145
:100780007420CB00CC004008013C031DFF30FF3A31
:10079000CD004B084C0484004D088A017420CD0024
:1007A000CE004108013C031DFF30FF3ACF004D0849
:1007B0004E0484004F088A017420CF00D0006400EA
:1007C0004F0850048A110A1203190D2CFE308A01B9
:1007D0000E20C0308A010E206B308A010E2061305D
:1007E0008A010E207A308A010E2061308A010E20A3
:1007F0006E308A010E2064308A010E2069308A0131
:100800000E206E308A010E2069308A010E207A3067
:100810008A010E208A110A12402C64005408003C00
:100820008A110A12031D3E2CFE308A010E20C030B0
:100830008A010E2061308A010E2064308A010E2068
:1008400061308A010E206D308A010E2020308A012D
:100850000E2061308A010E2073308A010E2069302B
:100860008A010E206C308A010E2064308A010E202D
:1008700069308A010E208A110A12402C8A01F5295A
:10088000D1010530D4002030D300D20164000530FE
:1008900052028A110A120318602C5208383E840052
:1008A000203080005208423E8400203080005208F0
:1008B0003D3E84008001D20A8A110A12031D462C93
:0408C0008A01192967
:02400E00753FFC
:00000001FF
