:020000040000FA
:100000003028A301A200FF30A207031CA307031C92
:100010002B280330A100DF300F200328A101E83E88
:10002000A000A109FC30031C1828A00703181528FC
:10003000A0076400A10F152820181E28A01C222844
:100040000000222808000310A00DA10DFF3E031898
:10005000232820082B28831303138312640008002D
:1000600083168601831286010130B80038088600A5
:100070000310B80D64003808103C8A110A12031DE1
:1000800043280130B80032308A0101208A01362825
:02400E00753FFC
:00000001FF
