:020000040000FA
:100000004228013EA7000A30A200A3010B20A70B43
:10001000062824080800A501A4011030A600210D1F
:10002000A40DA50D2208A4022308031C230FA5027A
:10003000031821282208A40723080318230FA50763
:100040000310A00DA10DA60B0F2820083D2810308D
:10005000A800A101A001A70CA60C031C35282208AA
:10006000A00723080318230FA107A10CA00CA50CBF
:10007000A40CA80B2B2824083D28831303138312F8
:100080006400080083168601870188010730890013
:1000900007309F00831286018701880164008A115E
:1000A0000A1209186528BA0A64000A303A028A114D
:1000B0000A12031C5C28BA013A08860064008A11FF
:1000C0000A12091865288A015E2864008A110A123A
:1000D00089187C28BB0A64000A303B028A110A1284
:1000E000031C7328BB013B08870064008A110A12B5
:1000F00089187C288A01752864008A110A12091956
:100100009D283A083B07BC003C08A000A101013033
:100110008A010120B800B9013808A6003908A700F3
:100120000630A200A3018A012720B8002508B900E3
:0E01300038083C07BD003D0888008A014E28B3
:02400E00753FFC
:00000001FF
