:020000040000FA
:100000006628A301A200FF30A207031CA307031C5C
:1000100061280330A100DF300F200328A101E83E52
:10002000A000A109FC30031C1828A00703181528FC
:10003000A0076400A10F152820181E28A01C222844
:100040000000222808000310A00DA10DFF3E031898
:10005000232820086128A20002302E28A8002308A7
:100060002102031D35282208200204300318013024
:10007000031902302805031DFF3061280038031DD5
:10008000FF300405031DFF306128A501A4011030D5
:10009000A600210DA40DA50D2208A4022308031C0F
:1000A000230FA50203185B282208A40723080318BE
:1000B000230FA5070310A00DA10DA60B49282008AA
:1000C00061288313031383126400080083168601DA
:1000D000870183128601FE30B8000130B9000E306E
:1000E000BA001030BB001030BC000E30BD00013033
:1000F000BE00FE30BF00FF30C000FF30C100C03086
:10010000C200C030C300C030C400C030C500FF30E2
:10011000C600FF30C700FF30C700FF30C800C03046
:10012000C900C030CA00C030CB00C030CC00FF30A6
:10013000CD00FF30CE000730D7000130D600D5010A
:100140006400173055028A110A120318062956094D
:1001500086005508383E84000008870002308A0176
:1001600001200310D60D5508A000A1015708A200D8
:10017000A3018A0145202408CE002508CF004E089F
:10018000A0004F08A100A30100308A012B20CE005F
:100190005508003C031DFF30D0004E088400500875
:1001A0008A013E20D000D1005508083C031DFF30D5
:1001B000D20050085104840052088A013E20D20027
:1001C000D3006400520853048A110A12031901294A
:1001D0000130D600D40156098600870102308A0119
:1001E00001200310D60DD40A8A110A12031DEB2830
:1001F0000130D6000830D7000130A3002C308A012E
:100200000220D50A8A110A12031DA0288A019B2800
:02400E00753FFC
:00000001FF
