:020000040000FA
:100000003028A301A200FF30A207031CA307031C92
:100010002B280330A100DF300F200328A101E83E88
:10002000A000A109FC30031C1828A00703181528FC
:10003000A0076400A10F152820181E28A01C222844
:100040000000222808000310A00DA10DFF3E031898
:10005000232820082B28831303138312640008002D
:10006000831686018701831286018701B801B901D1
:100070007E30BA000830BB000830BC007E30BD00C6
:10008000BE01BF010130C300C2016400083042025A
:100090008A110A1203185D28430986004208383E77
:1000A00084000008870005308A0101200310C30D79
:0E00B000C20A8A110A12031D45288A0142283D
:02400E00753FFC
:00000001FF
