:020000040000FA
:10000000B201A828A501A400B3172730A30010301F
:1000100015200330A300E8301520A301643015201B
:10002000A3010A30152024082028A2002508A100D9
:100030002408A00087202008031DB313B31B080069
:10004000303EA70009110910091083160911091083
:100050000910880183122708B21849283A30A100F4
:10006000FC3073203330A6005C201030A1006830D3
:1000700073205C20643072205C20383048200C30C3
:1000800048200130482006304820B214270849286B
:100090003214A600321C57280910033C031C5C28AC
:1000A0005C200730A100D030732003140800321404
:1000B000FE3C0319A32809140915260888003210EC
:1000C00009113230722003140800A301A200FF308E
:1000D000A207031CA307031CA3280330A100DF30E1
:1000E00073206728A101E83EA000A109FC30031C91
:1000F0007C28A00703187928A0076400A10F79289D
:1001000020188228A01C8628000086280800A50147
:10011000A4011030A600210DA40DA50D2208A402F3
:100120002308031C230FA50203189D282208A407F7
:1001300023080318230FA5070310A00DA10DA60B7C
:100140008B282008A328831303138312640008005C
:10015000831607309F00643083128A0165200A30BD
:10016000B8000130B80064000B3038028A110A125E
:100170000318CB28FE308A01212001308A0121207A
:1001800038088A0102204B308A016520B80A8A119A
:0A0190000A12031DB3288A01B128EA
:02400E00753FFC
:00000001FF
