:020000040000FA
:10000000B201BB2864008C1E02281A080314B6280B
:1000100064000C1E082899000314B628A7000911D3
:10002000091009108316091109100910880183129B
:100030002708B21836283A30A100FC309720333018
:10004000A60049201030A100683097204920643074
:1000500096204920383035200C30352001303520AD
:1000600006303520B214270836283214A600321C78
:1000700044280910033C031C492849200730A100EB
:10008000D0309720031408003214FE3C0319B62820
:1000900009140915260888003210091132309620FB
:1000A00003140800A300360884008417340980056F
:1000B0008413A3080319B628F030A500220880385D
:1000C000A400F030A5030319A5000319A303031925
:1000D000B6286A287A20030120183408A21F3408A1
:1000E000A20803190301A40F772880065E28782848
:1000F00000006128210820040319A00A8030201A7A
:10010000A1062019A106A018A106210DA00DA10D80
:10011000B628A301A200FF30A207031CA307031CFB
:10012000B6280330A100DF3097208B28A101E83EDC
:10013000A000A109FC30031CA028A00703189D28DB
:10014000A0076400A10F9D282018A628A01CAA289B
:100150000000AA2808000038031DFF300405031D15
:10016000FF30B6280404031DFF30B62883130313A1
:100170008312640008008316193099002430980017
:10018000831290309800831607309F0064308312EA
:100190008A018920FE308A010E2040308A010E201B
:1001A00000308A010E200E308A010E201F308A0195
:1001B0000E201F308A010E201F308A010E200E30C3
:1001C0008A010E2000308A010E20FE308A010E20A6
:1001D00048308A010E201B308A010E201B308A0114
:1001E0000E2011308A010E200A308A010E200430C0
:1001F0008A010E200A308A010E2011308A010E2059
:10020000FE308A010E2050308A010E2007308A010C
:100210000E200E308A010E201C308A010E200E3076
:100220008A010E2007308A010E200E308A010E202E
:100230001C308A010E20FE308A010E2058308A01BF
:100240000E2000308A010E200E308A010E201F3051
:100250008A010E201F308A010E201F308A010E20D5
:100260000E308A010E2000308A010E20FE308A01F5
:100270000E2060308A010E201B308A010E201B30B8
:100280008A010E2011308A010E200A308A010E20C8
:1002900004308A010E200A308A010E2011308A01B2
:1002A0000E20FE308A010E2068308A010E200730B1
:1002B0008A010E200E308A010E201C308A010E2089
:1002C0000E308A010E2007308A010E200E308A017E
:1002D0000E201C308A010E2031308A0108202E3079
:1002E0008A01082020308A0108204F308A01082026
:1002F00079308A01082075308A0108206E308A0121
:10030000082063308A01082075308A0108202030D7
:100310008A01082048308A01082061308A010820BB
:100320006D308A0108206C308A01082065308A010E
:1003300008206E308A01082069308A0108202030A8
:100340008A01082047308A01082069308A01082084
:1003500072308A01082028308A01082074308A010E
:1003600008202C308A0108206B308A0108202C30AC
:100370008A0108206D308A01082029308A0108206E
:100380003A308A0108200D308A0108200A308A019B
:1003900008208A010220C0004008743C031DFF3081
:1003A000FF3AB80040086D3C031DFF30FF3ABA0029
:1003B000380884003A088A01B220BA00BB0040081D
:1003C0006B3C031DFF30FF3ABC003A083B0484003D
:1003D0003C088A01B220BC00BD0064003C083D041A
:1003E0008A110A120319F7298A110A12592A53305D
:1003F0008A01082061308A01082064308A010820BF
:1004000065308A01082063308A01082065308A013E
:10041000082020308A01082074308A0108202C30FE
:100420008A0108206D308A0108202C308A010820BA
:100430006B308A01082027308A01082065308A0144
:10044000082020308A01082062308A0108206130AB
:100450008A01082073308A01082061308A0108204F
:1004600062308A01082069308A0108206C308A01D4
:10047000082069308A01082072308A010820733010
:100480008A01082069308A0108206E308A0108201C
:1004900069308A0108207A308A0108203A308A01BE
:1004A00008200D308A0108200A308A0108208A01BC
:1004B0006C2932308A0108202E308A010820203031
:1004C0008A0108204F308A01082079308A010820EB
:1004D00075308A0108206E308A01082063308A0155
:1004E000082075308A01082020308A010820483011
:1004F0008A01082061308A0108206D308A010820B5
:100500006C308A01082065308A0108206E308A012B
:10051000082069308A01082020308A0108204730ED
:100520008A01082069308A01082072308A01082077
:1005300028308A01082074308A0108202C308A0172
:1005400008206B308A0108202C308A0108206D3089
:100550008A01082029308A0108203A308A010820BF
:100560000D308A0108200A308A0108208A01022001
:10057000C1004108743C031DFF30FF3AB800410838
:100580006D3C031DFF30FF3ABA00380884003A087A
:100590008A01B220BA00BB0041086B3C031DFF304A
:1005A000FF3ABC003A083B0484003C088A01B220B0
:1005B000BC00BD0064003C083D048A110A12031906
:1005C000E72A8A110A124B2B8A110A12492B53303F
:1005D0008A01082061308A01082064308A010820DD
:1005E00065308A01082063308A01082065308A015D
:1005F000082020308A01082074308A0108202C301D
:100600008A0108206D308A0108202C308A010820D8
:100610006B308A01082027308A01082065308A0162
:10062000082020308A01082062308A0108206130C9
:100630008A01082073308A01082061308A0108206D
:1006400062308A01082069308A0108206C308A01F2
:10065000082069308A01082072308A01082073302E
:100660008A01082069308A0108206E308A0108203A
:1006700069308A0108207A308A0108203A308A01DC
:1006800008200D308A0108200A308A0108208A01DA
:10069000592A8A016C29FE308A010E2001308A0114
:1006A0000E204008743C031DFF30FF3AB80041089B
:1006B000743C031DFF30FF3ABA00380884003A0842
:1006C0008A01AB20BA00BB0064003A083B048A11DF
:1006D0000A120319B82B00308A010E2003308A0158
:1006E0000E2065308A010E2074308A010E206B3096
:1006F0008A010E2069308A010E206C308A010E209A
:1007000065308A010E206D308A010E2065308A0125
:100710000E207A308A010E20FE308A010E20C03071
:100720008A010E2042308A010E2065308A010E2097
:1007300072308A010E2061308A010E2062308A01F7
:100740000E2065308A010E2072308A010E2065303D
:100750008A010E200630B6000130B4005030A200ED
:100760000A308A0152202830A2000A308A01522021
:100770004008743C031DFF30FF3AB80041086B3C51
:10078000031DFF30FF3ABA00380884003A088A0196
:10079000AB20BA00BB0064003A083B048A110A127D
:1007A0000319312C02308A010E2003308A010E20F9
:1007B0006B308A010E2061308A010E2070308A0170
:1007C0000E206C308A010E2061308A010E207230BA
:1007D0008A010E20FE308A010E20C0308A010E20D0
:1007E00032308A010E202E308A010E2020308A01FC
:1007F0000E206F308A010E2079308A010E2075306C
:100800008A010E206E308A010E2063308A010E208C
:1008100075308A010E2020308A010E206B308A014B
:100820000E2061308A010E207A308A010E2061305C
:100830008A010E206E308A010E2064308A010E205B
:1008400069308A010E200630B6000130B4006430F1
:10085000A2000A308A0152207830A2000A308A01B0
:1008600052204008743C031DFF30FF3AB800410895
:100870006D3C031DFF30FF3ABA00380884003A0887
:100880008A01AB20BA00BB0064003A083B048A111D
:100890000A120319A72C00308A010E2004308A01A5
:1008A0000E206B308A010E2069308A010E207230D2
:1008B0008A010E2061308A010E2072308A010E20DA
:1008C000FE308A010E20C0308A010E2031308A01AC
:1008D0000E202E308A010E2020308A010E204F304B
:1008E0008A010E2079308A010E2075308A010E208F
:1008F0006E308A010E2063308A010E2075308A0125
:100900000E2020308A010E204B308A010E206130EB
:100910008A010E207A308A010E2061308A010E2071
:100920006E308A010E2064308A010E2069308A01FF
:100930000E200630B6000130B4006430A2000A3048
:100940008A0152207830A2000A308A0152204008E1
:100950006D3C031DFF30FF3AB8004108743C031D95
:10096000FF30FF3ABA00380884003A088A01AB2009
:10097000BA00BB0064003A083B048A110A1203194A
:100980001D2D00308A010E2004308A010E206B30AC
:100990008A010E2069308A010E2072308A010E20F1
:1009A00061308A010E2072308A010E20FE308A01E9
:1009B0000E20C0308A010E2032308A010E202E30E7
:1009C0008A010E2020308A010E204F308A010E202D
:1009D00079308A010E2075308A010E206E308A012E
:1009E0000E2063308A010E2075308A010E202030DF
:1009F0008A010E204B308A010E2061308A010E20C0
:100A00007A308A010E2061308A010E206E308A0110
:100A10000E2064308A010E2069308A010E200630D3
:100A2000B6000130B4006430A2000A308A015220BE
:100A30007830A2000A308A01522040086D3C031D24
:100A4000FF30FF3AB80041086B3C031DFF30FF3A0E
:100A5000BA00380884003A088A01AB20BA00BB000B
:100A600064003A083B048A110A120319932D0130DD
:100A70008A010E2005308A010E206B308A010E207B
:100A800065308A010E2073308A010E2065308A019C
:100A90000E2072308A010E20FE308A010E20C030F6
:100AA0008A010E2031308A010E202E308A010E205C
:100AB00020308A010E204F308A010E2079308A01C1
:100AC0000E2075308A010E206E308A010E206330B0
:100AD0008A010E2075308A010E2020308A010E20F6
:100AE0004B308A010E2061308A010E207A308A0153
:100AF0000E2061308A010E206E308A010E20643093
:100B00008A010E2069308A010E200630B6000130BD
:100B1000B4006430A2000A308A0152207830A2006A
:100B20000A308A01522040086D3C031DFF30FF3A15
:100B3000B80041086D3C031DFF30FF3ABA00380889
:100B400084003A088A01AB20BA00BB0064003A086E
:100B50003B048A110A120319082E01308A010E2063
:100B600004308A010E2065308A010E2074308A011B
:100B70000E206B308A010E2069308A010E206C3005
:100B80008A010E2065308A010E206D308A010E2008
:100B900065308A010E207A308A010E20FE308A01EB
:100BA0000E20C0308A010E2042308A010E206530AE
:100BB0008A010E2072308A010E2061308A010E20D7
:100BC00062308A010E2065308A010E2072308A015F
:100BD0000E2065308A010E200630B6000130B400C8
:100BE0005030A2000A308A0152202830A2000A3078
:100BF0008A0152200630B6000130B4006430A200F1
:100C00000A308A0152207830A2000A308A0152202C
:100C100040086B3C031DFF30FF3AB8004108743CAC
:100C2000031DFF30FF3ABA00380884003A088A01F1
:100C3000AB20BA00BB0064003A083B048A110A12D8
:100C40000319812E02308A010E2003308A010E2002
:100C50006B308A010E2061308A010E2070308A01CB
:100C60000E206C308A010E2061308A010E20723015
:100C70008A010E20FE308A010E20C0308A010E202B
:100C800031308A010E202E308A010E2020308A0158
:100C90000E204F308A010E2079308A010E207530E7
:100CA0008A010E206E308A010E2063308A010E20E8
:100CB00075308A010E2020308A010E204B308A01C7
:100CC0000E2061308A010E207A308A010E206130B8
:100CD0008A010E206E308A010E2064308A010E20B7
:100CE00069308A010E200630B6000130B40064304D
:100CF000A2000A308A0152207830A2000A308A010C
:100D0000522040086B3C031DFF30FF3AB8004108F9
:100D10006B3C031DFF30FF3ABA00380884003A08E4
:100D20008A01AB20BA00BB0064003A083B048A1178
:100D30000A120319E82E02308A010E2005308A01BA
:100D40000E2065308A010E2074308A010E206B302F
:100D50008A010E2069308A010E206C308A010E2033
:100D600065308A010E206D308A010E2065308A01BF
:100D70000E207A308A010E20FE308A010E20C0300B
:100D80008A010E2042308A010E2065308A010E2031
:100D900072308A010E2061308A010E2062308A0191
:100DA0000E2065308A010E2072308A010E206530D7
:100DB0008A010E200630B6000130B4005030A20087
:100DC0000A308A0152202830A2000A308A015220BB
:100DD00040086B3C031DFF30FF3AB80041086D3CF2
:100DE000031DFF30FF3ABA00380884003A088A0130
:100DF000AB20BA00BB0064003A083B048A110A1217
:100E000003195E2F01308A010E2005308A010E2061
:100E10006B308A010E2065308A010E2073308A0102
:100E20000E2065308A010E2072308A010E20FE30BD
:100E30008A010E20C0308A010E2032308A010E2035
:100E40002E308A010E2020308A010E204F308A0178
:100E50000E2079308A010E2075308A010E206E3006
:100E60008A010E2063308A010E2075308A010E201F
:100E700020308A010E204B308A010E2061308A0119
:100E80000E207A308A010E2061308A010E206E30E9
:100E90008A010E2064308A010E2069308A010E20FA
:100EA0000630B6000130B4006430A2000A308A0176
:100EB00052207830A2000A308A0152208A01492B40
:040EC0008A014B2B2D
:02400E00753FFC
:00000001FF
