:020000040000FA
:10000000B20119292C08A0002D08A100A201A3010A
:1000100009280A2864008C1A2328FF30A207031C31
:10002000A307031CA007031CA107031C0800220F41
:100030000828230F09283230A2000030A3000A2824
:1000400064008C1E20281A080314142964000C1E56
:100050002628990003141429A400B3172730A300FD
:1000600010303E200330A300E8303E20A30164306E
:100070003E20A3010A303E2024084928A20025087A
:10008000A1002408A000F3202008031DB313B31B14
:100090000800303EA7000911091009108316091144
:1000A00009100910880183122708B21872283A3003
:1000B000A100FC30D5203330A60085201030A100EF
:1000C0006830D52085206430D420852038307120D8
:1000D0000C3071200130712006307120B2142708D5
:1000E00072283214A600321C80280910033C031C1D
:1000F000852885200730A100D030D52003140800C2
:100100003214FE3C03191429091409152608880025
:10011000321009113230D42003140800A401A501C3
:10012000B3120F21031C0800D33E0319B3162D3E52
:10013000C63E031891280A3E031C9128A200031012
:10014000240DA000250DA100200DA10DA40703186A
:10015000A10A2108A507A40DA50D2208A4070318CC
:10016000A50AA9030319BD280F21031C0800C63ED8
:100170000318BD280A3E03189E28B31EC428A409EC
:10018000A509A40A0319A50A240803141429A30124
:10019000A200FF30A207031CA307031C142903308D
:1001A000A100DF30D520C928A101E83EA000A109A7
:1001B000FC30031CDE28A0070318DB28A00764001E
:1001C000A10FDB282018E428A01CE8280000E8285C
:1001D0000800013EA7000A30A200A301F320A70BEC
:1001E000EE2824080800A501A4011030A600210D66
:1001F000A40DA50D2208A4022308031C230FA502A9
:10020000031809292208A40723080318230FA507A8
:100210000310A00DA10DA60BF728200814298400B7
:1002200031088A00300882008313031383126400AC
:1002300008008316193099002430980083129030FA
:100240009800831607309F00643083128A01C7200C
:10025000BC01640018303C028A110A120318AE2A4D
:10026000BB0164003C303B028A110A120318A92A20
:10027000BA0164003C303A028A110A120318A42A17
:1002800053308A01262070308A01262061308A018D
:10029000262063308A01262065308A0126202030FE
:1002A0008A01262062308A01262061308A012620B8
:1002B00073308A01262061308A01262072308A013B
:1002C000262061308A0126206B308A0126202030CA
:1002D0008A01262073308A01262061308A01262077
:1002E00061308A01262074308A01262027308A0155
:1002F000262069308A01262020308A01262061309C
:100300008A01262079308A01262061308A01262040
:1003100072308A0126206C308A01262061308A01E1
:10032000262079308A01262061308A012620623019
:100330008A01262069308A0126206C308A01262015
:1003400069308A01262072308A01262073308A01A2
:10035000262069308A0126206E308A0126206930E5
:100360008A0126207A308A0126203A308A01262006
:100370000D308A0126200A308A0126206430AC0024
:10038000AD018A0102208A110A12031C3C2ABD0019
:1003900064003D08203C8A110A12031DD5298A11E8
:1003A0000A12B02A8A110A123C2A64003D08203C35
:1003B0008A110A1203193C2A53308A01262061301F
:1003C0008A01262064308A01262065308A01262091
:1003D00063308A01262065308A01262020308A0178
:1003E000262053308A01262070308A012620613071
:1003F0008A01262063308A01262065308A01262062
:1004000027308A01262065308A01262020308A0183
:10041000262062308A01262061308A01262073302E
:100420008A01262061308A01262062308A01262036
:1004300069308A0126206C308A01262069308A01C1
:10044000262072308A01262073308A0126206930E6
:100450008A0126206E308A01262069308A012620F2
:100460007A308A0126203A308A0126200D308A010E
:1004700026200A308A01262064308A01C720FE30F7
:100480008A014A2001308A014A20FE308A014A202E
:1004900085308A014A203C08A000A10101308A0170
:1004A000E920B800B9013908A50038088A012C20D4
:1004B0003C08A000A10100308A01E920B800B90180
:1004C0003908A50038088A012C203A308A014A20D0
:1004D0003B08A000A10101308A01E920B800B90160
:1004E0003908A50038088A012C203B08A000A1018A
:1004F00000308A01E920B800B9013908A5003808A0
:100500008A012C203A308A014A203A08A000A10131
:1005100001308A01E920B800B9013908A50038087E
:100520008A012C203A08A000A10100308A01E920AC
:10053000B800B9013908A50038088A012C20BA0A88
:100540008A110A12031D3929BB0A8A110A12031DD6
:100550003129BC0A8A110A12031D29298A01282976
:1005600053308A01262061308A01262061308A01B9
:10057000262074308A01262069308A012620203006
:100580008A01262047308A01262069308A012620E8
:1005900072308A0126203A308A0126200D308A01E5
:1005A00026200A308A0126200230A9002030B0001F
:1005B000B1018A018E20BC00640018303C028A110F
:1005C0000A12031C422B30308A0126202D308A016A
:1005D000262032308A01262033308A01262020301E
:1005E0008A01262041308A01262072308A01262085
:1005F00061308A01262073308A012620FD308A016D
:10060000262020308A01262042308A0126206930A7
:100610008A01262072308A01262020308A01262075
:1006200044308A01262065308A012620F0308A0174
:10063000262065308A01262072308A01262020304B
:100640008A01262047308A01262069308A01262027
:1006500072308A01262069308A0126206E308A0194
:10066000262069308A0126207A308A0126202E3001
:100670008A0126200D308A0126200A308A01262090
:100680008A01B02A44308A01262061308A0126205E
:100690006B308A01262069308A0126206B308A015E
:1006A000262061308A01262079308A012620FD30FB
:1006B0008A01262020308A01262047308A01262000
:1006C00069308A01262072308A0126203A308A0158
:1006D00026200D308A0126200A308A012620A90111
:1006E0002030B000B1018A018E20BB0064003C3094
:1006F0003B028A110A12031CF42B30308A01262097
:100700002D308A01262036308A01262030308A0199
:10071000262020308A01262041308A01262072308E
:100720008A01262061308A01262073308A01262022
:10073000FD308A01262020308A01262042308A019D
:10074000262069308A01262072308A012620203036
:100750008A01262044308A01262065308A0126201D
:10076000F0308A01262065308A01262072308A0105
:10077000262020308A01262047308A012620693031
:100780008A01262072308A01262069308A012620BB
:100790006E308A01262069308A0126207A308A014B
:1007A00026202E308A01262028308A012620443037
:1007B0008A01262061308A0126206B308A0126209A
:1007C00069308A0126206B308A01262061308A0137
:1007D000262029308A0126200D308A0126200A3061
:1007E0008A0126208A01422B53308A01262061305B
:1007F0008A0126206E308A01262069308A0126204F
:1008000079308A01262065308A01262079308A01D4
:10081000262069308A01262020308A012620473090
:100820008A01262069308A01262072308A0126201A
:100830003A308A0126200D308A0126200A308A01AA
:100840002620A9012030B000B1018A018E20BA0013
:1008500064003C303A028A110A12031CA62C303084
:100860008A0126202D308A01262036308A01262052
:1008700030308A01262020308A01262041308A012A
:10088000262072308A01262061308A0126207330AA
:100890008A012620FD308A01262020308A01262068
:1008A00042308A01262069308A01262072308A016E
:1008B000262020308A01262044308A0126206530F7
:1008C0008A012620F0308A01262065308A01262000
:1008D00072308A01262020308A01262047308A0182
:1008E000262069308A01262072308A01262069304C
:1008F0008A0126206E308A01262069308A0126204E
:100900007A308A0126202E308A01262028308A015A
:10091000262053308A01262061308A0126206E303D
:100920008A01262069308A01262079308A01262012
:1009300065308A01262029308A0126200D308A015F
:1009400026200A308A0126208A01F42BFE308A01F3
:100950004A20C4308A014A203C08A000A10101308D
:100960008A01E920B800B9013908A50038088A01D0
:100970002C203C08A000A10100308A01E920B80029
:10098000B9013908A50038088A012C203A308A01BB
:100990004A203B08A000A10101308A01E920B800EB
:1009A000B9013908A50038088A012C203B08A000AD
:1009B000A10100308A01E920B800B9013908A50079
:1009C00038088A012C203A308A014A203A08A000CF
:1009D000A10101308A01E920B800B9013908A50058
:1009E00038088A012C203A08A000A10100308A01B1
:1009F000E920B800B9013908A50038088A012C207F
:080A00008A013C2A8A01B02A98
:02400E00753FFC
:00000001FF
