:020000040000FA
:10000000B201F22864008C1E02281A080314ED289D
:1000100064000C1E082899000314ED28A501A40013
:10002000B3172730A300103021200330A300E8309D
:100030002120A30164302120A3010A3021202408BB
:100040002C28A2002508A1002408A000D120200807
:10005000031DB313B31B0800303EA700091109109C
:100060000910831609110910091088018312270845
:10007000B21855283A30A100FC30B6203330A60023
:1000800068201030A1006830B62068206430B520A8
:100090006820383054200C30542001305420063071
:1000A0005420B214270855283214A600321C6328A5
:1000B0000910033C031C682868200730A100D030D9
:1000C000B620031408003214FE3C0319ED2809146D
:1000D000091526088800321009113230B5200314A2
:1000E0000800A300360884008417340980058413AF
:1000F000A3080319ED28F030A50022088038A400D9
:10010000F030A5030319A5000319A3030319ED2873
:1001100089289920030120183408A21F3408A20856
:1001200003190301A40F962880067D289728000054
:100130008028210820040319A00A8030201AA10673
:100140002019A106A018A106210DA00DA10DED28D2
:10015000A301A200FF30A207031CA307031CED2884
:100160000330A100DF30B620AA28A101E83EA0009C
:10017000A109FC30031CBF28A0070318BC28A00756
:100180006400A10FBC282018C528A01CC9280000A5
:10019000C92808000038031DFF300405031DFF3087
:1001A000ED28A501A4011030A600210DA40DA50D78
:1001B0002208A4022308031C230FA5020318E72822
:1001C0002208A40723080318230FA5070310A00D76
:1001D000A10DA60BD5282008ED2883130313831245
:1001E00064000800831619309900243098008312A7
:1001F00090309800831607309F00643083128A0184
:10020000A820FE308A012D2040308A012D200E309A
:100210008A012D200A308A012D2004308A012D20E8
:100220001F308A012D2004308A012D200A308A01D6
:100230002D2011308A012D2000308A012D20FE3022
:100240008A012D2048308A012D2000308A012D207E
:1002500000308A012D2004308A012D201F308A01B0
:100260002D2004308A012D200A308A012D201130E2
:100270008A012D2000308A012D20FE308A012D2098
:1002800050308A012D2000308A012D2000308A0153
:100290002D2000308A012D2000308A012D200E30C3
:1002A0008A012D200A308A012D200E308A012D204E
:1002B00000308A012D20FE308A012D2058308A011D
:1002C0002D2004308A012D2008308A012D2017307E
:1002D0008A012D2008308A012D2004308A012D202A
:1002E00000308A012D2000308A012D2000308A0143
:1002F0002D20D1010530D6002030D500D301640077
:10030000053053028A110A12031899295308383EFE
:1003100084002A30800053083D3E84002030800055
:100320005308423E84008001D30A8A110A12031D39
:100330007F29FE308A012D2001308A012D200030D6
:100340008A012D2020308A012D2020308A012D2085
:1003500020308A012D2020308A012D2020308A0172
:100360002D2020308A012D2020308A012D202030A0
:100370008A012D2020308A012D2020308A012D2055
:1003800020308A012D2020308A012D2020308A0142
:100390002D2020308A012D2020308A012D20203070
:1003A0008A012D2020308A012D2020308A012D2025
:1003B00003308A012D20FE308A012D20C0308A01B1
:1003C0002D2038088A012D20FE308A012D20C130D1
:1003D0008A012D2039088A012D20FE308A012D2026
:1003E000C2308A012D203A088A012D20FE308A0170
:1003F0002D20C3308A012D203B088A012D20FE309C
:100400008A012D20C4308A012D203C088A012D202C
:10041000FE308A012D20C5308A012D2020308A012E
:100420002D204B308A012D2061308A012D206C3027
:100430008A012D2061308A012D206E308A012D2005
:1004400020308A012D2048308A012D2061308A0118
:100450002D206D308A012D206C308A012D206530D1
:100460008A012D203A308A012D2056088A010E205B
:100470000D308A0108200A308A01082031308A01B3
:1004800008202E308A01082020308A0108204F30B1
:100490008A01082079308A01082075308A010820F5
:1004A0006E308A01082063308A01082075308A0185
:1004B000082020308A01082035308A0108202030A9
:1004C0008A0108206B308A01082061308A010820E7
:1004D00072308A01082061308A0108206B308A015D
:1004E000082074308A01082065308A0108207230A3
:1004F0008A0108206C308A01082069308A010820AE
:1005000020308A0108206B308A01082065308A017A
:1005100008206C308A01082069308A0108206D307B
:100520008A01082065308A01082073308A0108207A
:1005300069308A0108206E308A01082069308A01FA
:10054000082020308A01082067308A01082069309D
:100550008A01082072308A01082073308A0108203D
:1005600069308A0108206E308A0108203A308A01F9
:1005700008200D308A0108200A308A010820D301A2
:100580006400053053028A110A120318D82A8A011E
:100590000220C700C80153083D3E84004708800080
:1005A0002A308A010820D30A8A110A12031DC02AA0
:1005B0000D308A0108200A308A01082068308A013B
:1005C000082061308A01082072308A0108206630D4
:1005D0008A01082020308A01082067308A0108201B
:1005E00069308A01082072308A01082069308A0146
:1005F00008206C308A01082064308A0108206930A4
:100600008A0108200D308A0108200A308A0108205A
:1006100032308A0108202E308A01082020308A01D9
:1006200008204F308A01082079308A01082075306F
:100630008A0108206E308A01082063308A01082070
:1006400075308A01082020308A01082074308A0120
:10065000082061308A01082068308A0108206D3046
:100660008A01082069308A0108206E308A0108203A
:1006700065308A01082020308A01082062308A0112
:10068000082061308A01082073308A0108206C300C
:100690008A01082061308A01082073308A0108200D
:1006A00069308A0108206E308A0108203A308A01B8
:1006B00008200D308A0108200A308A0108208A01AA
:1006C0000220D500D3016400053053028A110A12BA
:1006D0000318B02B53083D3E84000008C7004708AC
:1006E0005502031DFF30FF3AC7005308423E840005
:1006F0000008C9004908003C031DFF30FF3AC9004B
:100700004708840049088A01CA20C900CA00640059
:1007100049084A048A110A120319AB2B5308423EB6
:1007200084000130800053083D3E84000008C7006B
:100730005308383E8400470880000630B600013078
:10074000B4006430A2000A308A0171207830A2001F
:100750000A308A017120D30A8A110A12031D632B01
:10076000D3016400053053028A110A120318C72C02
:1007700053083D3E84000008C70064004708550246
:100780008A110A120319C02C5308043C031DFF30C0
:10079000FF3AC7005208013C031DFF30C90047085B
:1007A000840049088A01CA20C900CA0064004908B7
:1007B0004A048A110A120319EC2BD6030630B6003C
:1007C0000130B4005030A2000A308A017120283074
:1007D000A2000A308A01712064005608043C8A1184
:1007E0000A12031D2C2CFE308A012D2001308A01B3
:1007F0002D2000308A012D2020308A012D2020302C
:100800008A012D2020308A012D2020308A012D20C0
:1008100020308A012D2020308A012D2020308A01AD
:100820002D2020308A012D2020308A012D202030DB
:100830008A012D2020308A012D2020308A012D2090
:1008400020308A012D2020308A012D2020308A017D
:100850002D2003308A012D2064005608033C8A11A4
:100860000A12031D602CFE308A012D2001308A01FE
:100870002D2000308A012D2020308A012D202030AB
:100880008A012D2020308A012D2020308A012D2040
:1008900020308A012D2020308A012D2020308A012D
:1008A0002D2020308A012D2020308A012D2020305B
:1008B0008A012D2020308A012D2003308A012D202D
:1008C00064005608023C8A110A12031D8B2CFE306C
:1008D0008A012D2001308A012D2000308A012D202F
:1008E00020308A012D2020308A012D2020308A01DD
:1008F0002D2020308A012D2020308A012D2020300B
:100900008A012D2020308A012D2020308A012D20BF
:1009100003308A012D2064005608013C8A110A1216
:10092000031DAA2CFE308A012D2001308A012D20C2
:1009300000308A012D2020308A012D2020308A01AC
:100940002D2020308A012D2020308A012D200330D7
:100950008A012D2064005608003C8A110A12031DEA
:10096000BD2CFE308A012D2001308A012D2000305F
:100970008A012D2003308A012D208A110A12C22CEF
:100980000130D200D30A8A110A12031DB12BD20101
:10099000FE308A012D20C0308A012D2038088A01BE
:1009A0002D20FE308A012D20C1308A012D203908EA
:1009B0008A012D20FE308A012D20C2308A012D208F
:1009C0003A088A012D20FE308A012D20C3308A0189
:1009D0002D203B088A012D20FE308A012D20C430B5
:1009E0008A012D203C088A012D20FE308A012D200D
:1009F000C5308A012D2020308A012D204B308A01FC
:100A00002D2061308A012D206C308A012D2061302B
:100A10008A012D206E308A012D2020308A012D2060
:100A200048308A012D2061308A012D206D308A01E5
:100A30002D206C308A012D2065308A012D203A301E
:100A40008A012D2056088A010E204208013C031D10
:100A5000FF30FF3AC7004308013C031DFF30FF3A57
:100A6000C9004708840049088A01CA20C900CA0091
:100A70004408013C031DFF30FF3ACB0049084A04FB
:100A800084004B088A01CA20CB00CC004508013CF9
:100A9000031DFF30FF3ACD004B084C0484004D0885
:100AA0008A01CA20CD00CE004608013C031DFF305C
:100AB000FF3ACF004D084E0484004F088A01CA2037
:100AC000CF00D00064004F0850048A110A120319A5
:100AD000AE2DFE308A012D20C0308A012D204B30F2
:100AE0008A012D2061308A012D207A308A012D2043
:100AF00061308A012D206E308A012D2064308A01F8
:100B00002D2069308A012D206E308A012D20693018
:100B10008A012D207A308A012D2020308A012D2053
:100B200020308A012D2020308A012D2020308A019A
:100B30002D2020308A012D2020308A012D202030C8
:100B40008A012D2020308A012D2020308A012D207D
:100B500020308A012D208A110A12472E640056087F
:100B6000003C8A110A12031D452EFE308A012D20F9
:100B700001308A012D2001308A012D2002308A01A6
:100B80002D2003308A012D206B308A012D20613009
:100B90008A012D2079308A012D2062308A012D2092
:100BA00065308A012D2074308A012D2074308A012D
:100BB0002D2069308A012D206E308A012D20693068
:100BC0008A012D207A308A012D20FE308A012D20C5
:100BD000C0308A012D2038088A012D20FE308A017C
:100BE0002D20C1308A012D2039088A012D20FE30A8
:100BF0008A012D20C2308A012D203A088A012D2039
:100C0000FE308A012D20C3308A012D203B088A0145
:100C10002D20FE308A012D20C4308A012D203C0871
:100C20008A012D20FE308A012D20C5308A012D2019
:100C300020308A012D204B308A012D2061308A011D
:100C40002D206C308A012D2061308A012D206E30DC
:100C50008A012D2020308A012D2048308A012D2044
:100C600061308A012D206D308A012D206C308A017F
:100C70002D2065308A012D203A308A012D2056081A
:100C80008A010E208A110A12472E8A01082B53303E
:100C90008A01082070308A01082061308A0108200A
:100CA00063308A01082065308A01082020308A01DB
:100CB000082062308A01082061308A0108207330E0
:100CC0008A01082061308A01082072308A010820D8
:100CD00061308A0108206B308A01082020308A01A7
:100CE000082079308A01082065308A0108206E309A
:100CF0008A01082069308A01082020308A010820F2
:100D00006F308A01082079308A01082075308A0105
:100D100008206E308A01082061308A0108202030C6
:100D20008A01082067308A01082065308A0108207E
:100D300063308A01082065308A01082062308A0108
:100D4000082069308A0108206C308A010820693047
:100D50008A01082072308A01082073308A01082035
:100D600069308A0108206E308A01082069308A01C2
:100D700008207A308A0108200D308A0108200A30C4
:100D80008A0108208A010220D40064005408203C13
:100D90008A110A120319CE2E8A01472E8A01792957
:02400E00753FFC
:00000001FF
