:020000040000FA
:10000000B201F62864008C1E02281A080314F12895
:1000100064000C1E082899000314F128A501A4000F
:10002000B3172730A300103021200330A300E8309D
:100030002120A30164302120A3010A3021202408BB
:100040002C28A2002508A1002408A000D520200803
:10005000031DB313B31B0800303EA700091109109C
:100060000910831609110910091088018312270845
:10007000B21855283A30A100FC30B6203330A60023
:1000800068201030A1006830B62068206430B520A8
:100090006820383054200C30542001305420063071
:1000A0005420B214270855283214A600321C6328A5
:1000B0000910033C031C682868200730A100D030D9
:1000C000B620031408003214FE3C0319F128091469
:1000D000091526088800321009113230B5200314A2
:1000E0000800A300360884008417340980058413AF
:1000F000A3080319F128F030A50022088038A400D5
:10010000F030A5030319A5000319A3030319F1286F
:1001100089289920030120183408A21F3408A20856
:1001200003190301A40F962880067D289728000054
:100130008028210820040319A00A8030201AA10673
:100140002019A106A018A106210DA00DA10DF128CE
:10015000A301A200FF30A207031CA307031CF12880
:100160000330A100DF30B620AA28A101E83EA0009C
:10017000A109FC30031CBF28A0070318BC28A00756
:100180006400A10FBC282018C528A01CC9280000A5
:10019000C92808000038031DFF300405031DFF3087
:1001A000F1280404031DFF30F128A501A40110303B
:1001B000A600210DA40DA50D2208A4022308031CEE
:1001C000230FA5020318EB282208A407230803180D
:1001D000230FA5070310A00DA10DA60BD9282008F9
:1001E000F128831303138312640008008316193067
:1001F00099002430980083129030980083160730BD
:100200009F00643083128A01A8200D30C000FE30A8
:100210008A012D2048308A012D201B308A012D2093
:100220001B308A012D2011308A012D200A308A01CD
:100230002D2004308A012D200A308A012D20113012
:100240008A012D20FE308A012D2040308A012D2088
:1002500000308A012D200E308A012D201F308A01A6
:100260002D201F308A012D201F308A012D200E30B5
:100270008A012D2000308A012D20FE308A012D2098
:1002800050308A012D2007308A012D200E308A013E
:100290002D201C308A012D200E308A012D200730A0
:1002A0008A012D200E308A012D201C308A012D203C
:1002B00031308A0108202E308A01082020308A013E
:1002C00008204F308A01082079308A0108207530D3
:1002D0008A0108206E308A01082063308A010820D4
:1002E00075308A01082020308A01082048308A01B0
:1002F000082061308A0108206D308A0108206C30A6
:100300008A01082065308A0108206E308A010820A1
:1003100069308A01082020308A01082047308A018C
:10032000082069308A01082072308A0108202830AC
:100330008A01082074308A0108202C308A010820A4
:100340006B308A0108202C308A0108206D308A0128
:10035000082029308A0108203A308A0108200D300F
:100360008A0108200A308A0108208A010220BE0082
:100370003E08743C031DFF30FF3AB8003E086D3C58
:10038000031DFF30FF3ABA00380884003A088A019A
:10039000D120BA00BB003E086B3C031DFF30FF3A82
:1003A000BC003A083B0484003C088A01D120BC0010
:1003B000BD0064003C083D048A110A120319E329B8
:1003C0008A110A12452A53308A01082061308A01B5
:1003D000082064308A01082065308A0108206330D3
:1003E0008A01082065308A01082020308A0108200F
:1003F00074308A0108202C308A0108206D308A016F
:1004000008202C308A0108206B308A010820273010
:100410008A01082065308A01082020308A010820DE
:1004200062308A01082061308A01082073308A0115
:10043000082061308A01082062308A010820693072
:100440008A0108206C308A01082069308A0108205E
:1004500072308A01082073308A01082069308A01CD
:1004600008206E308A01082069308A0108207A301D
:100470008A0108203A308A0108200D308A010820BC
:100480000A308A0108208A01582932308A0108205E
:100490002E308A01082020308A0108204F308A013E
:1004A000082079308A01082075308A0108206E30D2
:1004B0008A01082063308A01082075308A010820EB
:1004C00020308A01082048308A01082061308A01E2
:1004D00008206D308A0108206C308A0108206530C0
:1004E0008A0108206E308A01082069308A010820BC
:1004F00020308A01082047308A01082069308A01AB
:10050000082072308A01082028308A0108207430BF
:100510008A0108202C308A0108206B308A010820CB
:100520002C308A0108206D308A01082029308A0188
:1005300008203A308A0108200D308A0108200A304C
:100540008A0108208A010220BF003F08743C031D75
:10055000FF30FF3AB8003F086D3C031DFF30FF3A03
:10056000BA00380884003A088A01D120BA00BB00DA
:100570003F086B3C031DFF30FF3ABC003A083B04C8
:1005800084003C088A01D120BC00BD0064003C0806
:100590003D048A110A120319D32A8A110A12372B31
:1005A0008A110A12352B53308A01082061308A01E2
:1005B000082064308A01082065308A0108206330F1
:1005C0008A01082065308A01082020308A0108202D
:1005D00074308A0108202C308A0108206D308A018D
:1005E00008202C308A0108206B308A01082027302F
:1005F0008A01082065308A01082020308A010820FD
:1006000062308A01082061308A01082073308A0133
:10061000082061308A01082062308A010820693090
:100620008A0108206C308A01082069308A0108207C
:1006300072308A01082073308A01082069308A01EB
:1006400008206E308A01082069308A0108207A303B
:100650008A0108203A308A0108200D308A010820DA
:100660000A308A0108208A01452A8A015829FE3069
:100670008A012D2001308A012D203E08743C031D83
:10068000FF30FF3AB8003F08743C031DFF30FF3ACB
:10069000BA00380884003A088A01CA20BA00BB00B0
:1006A00064003A083B048A110A120319A42B003093
:1006B0008A012D2000308A012D2065308A012D20ED
:1006C00074308A012D206B308A012D2069308A0117
:1006D0002D206C308A012D2065308A012D206D304F
:1006E0008A012D2065308A012D207A308A012D2043
:1006F000FE308A012D20C0308A012D2042308A012F
:100700002D2065308A012D2072308A012D20613024
:100710008A012D2062308A012D2065308A012D202A
:1007200072308A012D2065308A012D200630B600F6
:100730000130B4005030A2000A308A017120283004
:10074000A2000A308A0171203E08743C031DFF306C
:10075000FF3AB8003F086B3C031DFF30FF3ABA0078
:10076000380884003A088A01CA20BA00BB00640035
:100770003A083B048A110A1203191D2C02308A011F
:100780002D2000308A012D206B308A012D20613010
:100790008A012D2070308A012D206C308A012D2095
:1007A00061308A012D2072308A012D20FE308A01AD
:1007B0002D20C0308A012D2032308A012D202E308C
:1007C0008A012D2020308A012D206F308A012D20B2
:1007D00079308A012D2075308A012D206E308A01F2
:1007E0002D2063308A012D2075308A012D20203084
:1007F0008A012D206B308A012D2061308A012D2045
:100800007A308A012D2061308A012D206E308A01D4
:100810002D2064308A012D2069308A012D20063078
:10082000B6000130B4006430A2000A308A017120A1
:100830007830A2000A308A0171203E08743C031D02
:10084000FF30FF3AB8003F086D3C031DFF30FF3A10
:10085000BA00380884003A088A01CA20BA00BB00EE
:1008600064003A083B048A110A120319932C0030E1
:100870008A012D2040088A010E206B308A012D202C
:1008800069308A012D2072308A012D2061308A0161
:100890002D2072308A012D20FE308A012D20C0309B
:1008A0008A012D2031308A012D202E308A012D2001
:1008B00020308A012D204F308A012D2079308A0185
:1008C0002D2075308A012D206E308A012D20633055
:1008D0008A012D2075308A012D2020308A012D209B
:1008E0004B308A012D2061308A012D207A308A0117
:1008F0002D2061308A012D206E308A012D20643038
:100900008A012D2069308A012D200630B600013081
:10091000B4006430A2000A308A0171207830A2004D
:100920000A308A0171203E086D3C031DFF30FF3AFA
:10093000B8003F08743C031DFF30FF3ABA00380886
:1009400084003A088A01CA20BA00BB0064003A0851
:100950003B048A110A120319092D00308A012D2047
:1009600001308A012D206B308A012D2069308A01E7
:100970002D2072308A012D2061308A012D207230A5
:100980008A012D20FE308A012D20C0308A012D20C1
:1009900032308A012D202E308A012D2020308A010C
:1009A0002D204F308A012D2079308A012D2075307D
:1009B0008A012D206E308A012D2063308A012D207E
:1009C00075308A012D2020308A012D204B308A017C
:1009D0002D2061308A012D207A308A012D2061304E
:1009E0008A012D206E308A012D2064308A012D204D
:1009F00069308A012D200630B6000130B400643021
:100A0000A2000A308A0171207830A2000A308A01DF
:100A100071203E086D3C031DFF30FF3AB8003F08CF
:100A20006B3C031DFF30FF3ABA00380884003A08D7
:100A30008A01CA20BA00BB0064003A083B048A114C
:100A40000A1203197F2D01308A012D2002308A01FC
:100A50002D206B308A012D2065308A012D207330C6
:100A60008A012D2065308A012D2072308A012D20C7
:100A7000FE308A012D20C0308A012D2031308A01BC
:100A80002D202E308A012D2020308A012D204F303C
:100A90008A012D2079308A012D2075308A012D2080
:100AA0006E308A012D2063308A012D2075308A0135
:100AB0002D2020308A012D204B308A012D206130DD
:100AC0008A012D207A308A012D2061308A012D2063
:100AD0006E308A012D2064308A012D2069308A0110
:100AE0002D200630B6000130B4006430A2000A3078
:100AF0008A0171207830A2000A308A0171203E08F4
:100B00006D3C031DFF30FF3AB8003F086D3C031DEC
:100B1000FF30FF3ABA00380884003A088A01CA2038
:100B2000BA00BB0064003A083B048A110A12031998
:100B3000F42D01308A012D2001308A012D206530ED
:100B40008A012D2074308A012D206B308A012D20DE
:100B500069308A012D206C308A012D2065308A0190
:100B60002D206D308A012D2065308A012D207A30AC
:100B70008A012D20FE308A012D20C0308A012D20CF
:100B800042308A012D2065308A012D2072308A0181
:100B90002D2061308A012D2062308A012D206530A0
:100BA0008A012D2072308A012D2065308A012D2086
:100BB0000630B6000130B4005030A2000A308A017D
:100BC00071202830A2000A308A0171200630B60058
:100BD0000130B4006430A2000A308A0171207830FC
:100BE000A2000A308A0171203E086B3C031DFF30D1
:100BF000FF3AB8003F08743C031DFF30FF3ABA00CB
:100C0000380884003A088A01CA20BA00BB00640090
:100C10003A083B048A110A1203196D2E02308A0128
:100C20002D2000308A012D206B308A012D2061306B
:100C30008A012D2070308A012D206C308A012D20F0
:100C400061308A012D2072308A012D20FE308A0108
:100C50002D20C0308A012D2031308A012D202E30E8
:100C60008A012D2020308A012D204F308A012D202D
:100C700079308A012D2075308A012D206E308A014D
:100C80002D2063308A012D2075308A012D202030DF
:100C90008A012D204B308A012D2061308A012D20C0
:100CA0007A308A012D2061308A012D206E308A0130
:100CB0002D2064308A012D2069308A012D200630D4
:100CC000B6000130B4006430A2000A308A017120FD
:100CD0007830A2000A308A0171203E086B3C031D67
:100CE000FF30FF3AB8003F086B3C031DFF30FF3A6E
:100CF000BA00380884003A088A01CA20BA00BB004A
:100D000064003A083B048A110A120319D42E0230F7
:100D10008A012D2002308A012D2065308A012D2084
:100D200074308A012D206B308A012D2069308A01B0
:100D30002D206C308A012D2065308A012D206D30E8
:100D40008A012D2065308A012D207A308A012D20DC
:100D5000FE308A012D20C0308A012D2042308A01C8
:100D60002D2065308A012D2072308A012D206130BE
:100D70008A012D2062308A012D2065308A012D20C4
:100D800072308A012D2065308A012D200630B60090
:100D90000130B4005030A2000A308A01712028309E
:100DA000A2000A308A0171203E086B3C031DFF300F
:100DB000FF3AB8003F086D3C031DFF30FF3ABA0010
:100DC000380884003A088A01CA20BA00BB006400CF
:100DD0003A083B048A110A1203194A2F01308A018A
:100DE0002D2002308A012D206B308A012D206530A4
:100DF0008A012D2073308A012D2065308A012D2033
:100E000072308A012D20FE308A012D20C0308A01E7
:100E10002D2032308A012D202E308A012D202030C5
:100E20008A012D204F308A012D2079308A012D2012
:100E300075308A012D206E308A012D2063308A01A1
:100E40002D2075308A012D2020308A012D204B3035
:100E50008A012D2061308A012D207A308A012D20CF
:100E600061308A012D206E308A012D2064308A0184
:100E70002D2069308A012D200630B6000130B400E3
:100E80006430A2000A308A0171207830A2000A3052
:0C0E90008A0171208A0158298A01372B41
:02400E00753FFC
:00000001FF
