:020000040000FA
:10000000B2016D28A7000911091009108316091102
:1000100009100910880183122708B2182A283A30DB
:10002000A100FC3054203330A6003D201030A10048
:10003000683054203D20643053203D203830292042
:100040000C3029200130292006302920B21427083D
:100050002A283214A600321C38280910033C031C3D
:100060003D283D200730A100D03054200314080063
:100070003214FE3C03196828091409152608880063
:10008000321009113230532003140800A301A200DA
:10009000FF30A207031CA307031C68280330A1003C
:1000A000DF3054204828A101E83EA000A109FC301F
:1000B000031C5D28A00703185A28A0076400A10F9D
:1000C0005A2820186328A01C672800006728080009
:1000D00083130313831264000800831607309F0004
:1000E000643083128A0146200A30B800FE308A014B
:1000F000022040308A0102200E308A010220103096
:100100008A01022010308A01022010308A01022068
:1001100010308A0102201E308A01022004308A0138
:10012000022004308A010220FE308A010220483079
:100130008A0102200A308A01022000308A0102204E
:100140000E308A0102200A308A0102200A308A0118
:1001500002200A308A0102200E308A01022000307B
:100160008A010220FE308A01022050308A010220DA
:1001700010308A01022010308A01022010308A01DA
:10018000022010308A01022010308A010220103033
:100190008A0102201E308A01022000308A010220DA
:1001A000FE308A01022058308A0102201E308A0166
:1001B000022010308A01022010308A0102201630FD
:1001C0008A01022012308A01022012308A010220A4
:1001D0001E308A01022000308A010220FE308A018E
:1001E000022060308A0102200A308A010220003099
:1001F0008A01022011308A01022011308A01022076
:1002000011308A01022011308A0102201F308A0138
:10021000022000308A010220FE308A01022068306C
:100220008A0102201F308A01022011308A01022037
:1002300010308A0102201F308A01022001308A0119
:1002400002201F308A01022004308A01022000307F
:100250008A010220FE308A01022070308A010220C9
:1002600004308A01022000308A01022004308A0111
:10027000022004308A01022004308A010220043066
:100280008A01022004308A01022000308A01022003
:10029000FE308A01022001308A01022000308A01EA
:1002A000022001308A0102204C308A010220FE30F7
:1002B0008A010220C0308A01022003308A01022014
:1002C00004308A0102204E308A01022045308A0122
:1002D000022005308A01022006308A0102206430A3
:0802E0008A0146208A01482929
:02400E00753FFC
:00000001FF
